:020000040800F2
:1000000000500020DD3400088D2F00088F2F0008DD
:10001000912F0008932F0008952F00080000000082
:10002000000000000000000000000000972F000802
:10003000992F0008000000009B2F00089D2F00084A
:100040002535000825350008253500082535000828
:1000500025350008A12F0008CB2F0008D12F00085C
:100060002535000825350008253500082535000808
:1000700025350008253500082535000825350008F8
:1000800025350008253500082535000825350008E8
:10009000253500082535000825350008C52F00083E
:1000A00025350008253500082535000825350008C8
:1000B000A52F000825350008B12F000825350008B8
:1000C00025350008253500082535000825350008A8
:1000D00025350008D92F000825350008E52F000830
:1000E000BD2F000825350008253500080000000058
:1000F0000000000000000000000000000000000000
:0C01000000000000000000005FF808F1A3
:10010C0010B5054C237833B9044B13B10448AFF345
:10011C0000800123237010BDE001002000000000CE
:10012C00D445000808B5034B1BB103490348AFF392
:10013C00008008BD00000000E4010020D445000848
:10014C0010F8012B11F8013B012A28BF9A42F7D075
:10015C00D01A704738B50E4B054618784FF47A73A1
:10016C00B3FBF0F30B4A1068B0FBF3F000F092FB1A
:10017C00044658B90F2D09D8024629464FF0FF30D6
:10018C0000F046FB044B20461D6038BD012038BDF5
:10019C00000000200C00002004000020074A08B5D5
:1001AC001368032043F01003136000F01FFB0020C2
:1001BC00FFF7D0FF02F00EFE002008BD0020024029
:1001CC00034A044B11681B780B441360704700BF43
:1001DC001402002000000020014B1868704700BF7B
:1001EC0014020020F7B5002504460E460195FFF7D2
:1001FC00F3FF236807469A68D20508D50120A36A45
:10020C0084F8245043F02003A36203B0F0BD5A6875
:10021C00D50503D4DB6A13F4700F40D0424B022097
:10022C001D6800F0C9FF2368404A1969B5FBF0F05E
:10023C0011423F4A55D1DD683E490D4251D11969F1
:10024C0011425FD1DA683C4B1A4214BF29231423A4
:10025C0000FB03F5019B9D4225D9731C5DD0002E3C
:10026C0056D1019B9D4258D9A36A43F00403A36263
:10027C0000230BE0701C13D066B923681B6813F0C5
:10028C0002030CD1A26A42F00402A26284F8243068
:10029C000320BAE7FFF7A0FFC01B8642EDD322680C
:1002AC0013689907E6D56FF0120322681360A36AEE
:1002BC0043F40073A362936803F46023B3F5602FD7
:1002CC002FD1237B002B2CD1A36A23F48073A36240
:1002DC00A06A10F4805024D1A36A43F00103A362F6
:1002EC0093E71969114203D1D968134A11420BD013
:1002FC001969124A114209D1DB68134214BFFC235D
:10030C005423A5E72923A3E75423A1E7FC239FE764
:10031C00FFF762FFC01B8642A3D3019B01330193FD
:10032C0098E7002071E700BF0C00002024499224BC
:10033C0092244912244992009224490049922400A3
:10034C000368D86C70470000002373B5019390F8D4
:10035C002430012B74D001234D6880F82430062DF5
:10036C0002684FEA85030C6825D82B441F25566B71
:10037C00053B9D4026EA050504FA03F32B43536322
:10038C00092C4FEA44038D682FD907262344D168E2
:10039C001E3B9E4021EA060105FA03F30B43D36092
:1003AC00A4F11003012B2BD90023002280F8242068
:1003BC00184602B070BD0C2D0BD82B441F25166BA4
:1003CC00233B9D4026EA050504FA03F32B431363F4
:1003DC00D6E72B441F25D66A413B9D4026EA0505EE
:1003EC0004FA03F32B43D362CAE7072611692344AB
:1003FC009E4021EA060105FA03F30B431361CFE794
:10040C00104B9A4216D193681B02CDD49368102CD2
:10041C0043F400039360C7D10B4B0C4A1B68B3FB2E
:10042C00F2F20A2353430193019B002BBCD0019B96
:10043C00013BF8E7836A43F0200383620123B4E7AE
:10044C000223B5E7002401400C00002040420F00BD
:10045C00002337B50193036804469A68D20702D586
:10046C00002003B030BD9A6842F001029A60144B30
:10047C00144A1B68B3FBF2F30193019BE3B9FFF73A
:10048C00ABFE054623689B68DB07E9D4FFF7A4FEA7
:10049C00401B0228F6D923689B6813F00103F1D1A5
:1004AC00A26A84F8243042F01002A262E26A0120AF
:1004BC0042F00102E262D4E7019B013BDCE700BFA2
:1004CC000C00002040420F0090F8243010B5012B96
:1004DC00044654D0012380F82430FFF7B9FF0028DC
:1004EC0049D1A36A274A23F4407323F0010343F450
:1004FC008073A3622368934204D123494A6812F49F
:10050C00702F2ED1A26A22F48012A2625A68520570
:10051C0041BFA26A22F4405242F48052A262A26A03
:10052C0012F480521CBFE26A22F00602E262002240
:10053C0084F824206FF002021A609A6802F4602298
:10054C00B2F5602F13D10F4A934205D1A2F5806208
:10055C00526812F4702F0AD19A6842F4A0029A6081
:10056C0010BDA26A42F48012A2624A68CFE79A6870
:10057C0042F48012F3E7002384F8243010BD0220EB
:10058C0010BD00BF002801400024014038B50368AD
:10059C0004469A68D10701D4002038BD9A6822F02D
:1005AC0001029A60FFF718FE054623689B68DB077B
:1005BC00F2D5FFF711FE401B0228F6D923689B6881
:1005CC00DA07F2D5A36A012043F01003A362E36AB1
:1005DC0043F00103E36238BD70B50446002871D0C6
:1005EC00836A23B9C36280F8243002F01DFC2046D4
:1005FC00FFF7CCFFA36A13F0100FA36A64D1002895
:10060C0062D1E16923F48853626823F0020343F05A
:10061C0002030A43A168A362237BB1F5807F42EAFF
:10062C00430238D0012914BF06464FF48076257D4D
:10063C00012D07D1002B30D1A369013B46EA43358C
:10064C0045F400662368B1F5807F5D6825F4694543
:10065C0045EA06055D609E681D4D05EA060545EAFE
:10066C0002059D6001D0012920D1216901390905BC
:10067C00DD6A25F470052943D9629968154B0B4046
:10068C009A4215D10023E362A36A23F0030343F0DB
:10069C000103A36270BD0E46C9E7A36A43F02003B1
:1006AC00A362E36A43F00103E362CBE70021DFE7D7
:1006BC00A36A23F0120343F01003A362E36A43F02E
:1006CC000103E362012070BD43F01003A362F9E75C
:1006DC00FDF7E1FFFE0E1FFF90F8243010B5012B43
:1006EC00044611D0012380F82430FFF74FFF38B9AE
:1006FC00A36A23F4885323F0010343F00103A3629C
:10070C00002384F8243010BD022010BD002373B5E3
:10071C00019390F824300446012B62D0012380F819
:10072C002430FFF733FF0546002832D1A36A02209C
:10073C0023F4885323F0020343F00203A3622A4BF1
:10074C001E6800F039FDB6FBF0F040000190019BF3
:10075C001BBB2046FFF77CFE2268936843F008031E
:10076C009360FFF739FD064623689A68110718D481
:10077C009A6842F004029A60FFF72EFD0646236841
:10078C009B685B0723D4A36A23F0030343F00103A4
:10079C00A362002384F8243016E0019B013B0193F3
:1007AC00D5E7FFF719FD801B0A28DDD923689B6864
:1007BC001807D9D5A36A012523F0120343F01003BF
:1007CC00A362002384F82430284602B070BDFFF7E2
:1007DC0003FD801B0A28D2D923689B685A07CED503
:1007EC00E8E70225F0E700BF0C000020074A0002F2
:1007FC00D36800F4E06023F4E0631B041B0C43F0AB
:10080C00BF6343F400330343D360704700ED00E053
:10081C00174B30B5DC68C4F30224C4F10703251D63
:10082C00042B28BF0423062D4FF0010598BF00248C
:10083C0005FA03F303F1FF3388BF033C1940A140D1
:10084C0005FA04F4013C2240002842EA01024FEA76
:10085C000212A9BF00F16040064BD2B200F5614014
:10086C00BBBF00F00F00D2B280F800231A5430BD89
:10087C0000ED00E014ED00E0002808DB0123420944
:10088C0000F01F0003FA00F0014B43F82200704700
:10089C0000E100E00138B0F1807F0AD2F021064B74
:1008AC00064A586082F823100020072298601A60CC
:1008BC0070470120704700BF10E000E000ED00E041
:1008CC0090F82130022B06D004238363002380F898
:1008DC002030012070470368C16B1A6822F00E02A9
:1008EC001A601A6822F001021A600122036C02FAE3
:1008FC0003F34B60002380F8212080F82030184649
:10090C007047000090F8213010B5022B03D004235F
:10091C008363012010BD03681A6822F00E021A606E
:10092C001A6822F001021A60184A93421FD014323E
:10093C0093421ED0143293421DD0143293421DD0D8
:10094C00143293421DD0143293420CBF4FF48013D7
:10095C004FF080730E4A00245360012380F821303D
:10096C00436B80F820407BB19847204610BD012393
:10097C00F0E71023EEE74FF48073EBE74FF480536E
:10098C00E8E74FF48033E5E7184610BD0800024055
:10099C00000002402DE9F74F00242646664BDFF895
:1009AC00A8E1DFF8A8C10A6832FA06F502D103B053
:1009BC00BDE8F08F4FF0010808FA06F802EA0802C9
:1009CC0090457FD14D68122D00F0AA8000F28380F3
:1009DC00022D00F0A28077D8002D00F08980012D27
:1009EC0000F099804FF00F09FF2A93BF824606F161
:1009FC008045083DD0F800B092BFB500D0F804B0E7
:100A0C00AD0009FA05F82BEA080804FA05F588BFC9
:100A1C0000F1040A48EA0505CAF80050D1F804A010
:100A2C001AF0805F4ED0454D444FAD6926F0030857
:100A3C0045F00105BD61BD6908F1804805F001056F
:100A4C00019508F5803806F0030B019D4FEA8B0BDE
:100A5C00D8F8085009FA0BF925EA0909384DA842CB
:100A6C0063D005F58065A84261D005F58065A84284
:100A7C005FD005F58065A8420CBF0325042505FA57
:100A8C000BF545EA0905C8F808501D681AF4803FB3
:100A9C0014BF154395431D605D681AF4003F14BFE5
:100AAC00154395435D609D681AF4801F14BF154370
:100ABC0095439D60DD681AF4001F14BF2A4325EA94
:100ACC000202DA6001366EE7032D22D0112D89D196
:100ADC00CC68043486E71B4FBD4209D012D8DFF82E
:100AEC0070904D4504D009F580394D457FF47AAFAF
:100AFC008C68C4B1012C0CBFC0F81080C0F81480F5
:100B0C0008246FE77545F3D06545F1D0DFF84490C4
:100B1C00EBE7002466E7CC6864E7CC68083461E74F
:100B2C00CC680C345EE704245CE70025A7E70125BC
:100B3C00A5E70225A3E700BF000401400010024016
:100B4C00000801400000211000003110000032109C
:100B5C0000001110000022108368194214BF0120FC
:100B6C00002070470AB1016170470904FBE7C368B4
:100B7C0003EA010221EA030141EA024101617047E3
:100B8C0008B5044B5969014202D0586101F052FC7E
:100B9C0008BD00BF000401402DE9F341054608B92A
:100BAC0001203CE00368DB0710D42B689F075DD461
:100BBC002B68190700F194802B685A0700F1BE804E
:100BCC00E869002840F02C81002028E08F4C6368F5
:100BDC0003F00C03042B07D0636803F00C03082B01
:100BEC0009D16368DE0306D523689C03DDD56B68E9
:100BFC00002BDAD1D4E76B68B3F5803F12D12368B0
:100C0C0043F480332360FFF7E7FA06462368980322
:100C1C00CBD4FFF7E1FA801B6428F7D9032002B08C
:100C2C00BDE8F0819BB9236823F4803323602368EB
:100C3C0023F480232360FFF7CFFA06462368990339
:100C4C00B3D5FFF7C9FA801B6428F7D9E6E7B3F5EB
:100C5C00A02F236803D143F480232360CFE723F430
:100C6C0080332360236823F48023CBE7674C6368CD
:100C7C0013F00C0F07D0636803F00C03082B10D192
:100C8C006368DA030DD423689B0702D52B69012B0B
:100C9C0086D123686A6923F0F80343EAC203236010
:100CAC0086E72A695A4B6AB101221A60FFF794FA57
:100CBC00064623689F07ECD4FFF78EFA801B0228A8
:100CCC00F7D9ABE71A60FFF787FA0646236898074F
:100CDC007FF56EAFFFF780FA801B0228F6D99DE7EF
:100CEC00AA694A4C4B4BDAB101221A60FFF774FA2D
:100CFC000646636A9B070DD54FF4FA52464B1B68A8
:100D0C00B3FBF2F3019300BF019B5A1E0192002B1F
:100D1C00F9D151E7FFF760FA801B0228E9D97DE78A
:100D2C001A60FFF759FA0646636A9F077FF544AFCE
:100D3C00FFF752FA801B0228F6D96FE7334CE369B0
:100D4C00D80024D40127E36943F08053E361E369BD
:100D5C0003F080530093009B304E3368D90518D5AF
:100D6C00EB68012B26D1236A43F001032362FFF7C2
:100D7C0033FA41F288368046236A9B073FD5002F11
:100D8C003FF41EAFE36923F08053E36118E70027BB
:100D9C00E2E7336843F480733360FFF71DFA804653
:100DAC003368DA05DCD4FFF717FAA0EB08006428E7
:100DBC00F6D933E7ABB9236A41F2883823F0010343
:100DCC002362236A23F004032362FFF705FA064625
:100DDC00236A9807D3D5FFF7FFF9801B4045F7D955
:100DEC001CE7052B236A03D143F004032362BAE703
:100DFC0023F001032362236A23F00403B6E7FFF711
:100E0C00EBF9A0EB0800B042B6D907E7001002409E
:100E1C0000004242800442420C000020007000405E
:100E2C002A4B5A681C4602F00C02082A3DD00023BB
:100E3C00274E022833602BD1FFF7CEF907462368E3
:100E4C0099011FD42B6AB3F5803F05D16268A9685C
:100E5C0022F400320A436260696A62680B4322F42E
:100E6C0074121343636001233360FFF7B5F9054631
:100E7C0023689A013FF5A8AEFFF7AEF9401B022894
:100E8C00F6D9CBE6FFF7A8F9C01B0228D7D9C5E6DF
:100E9C00FFF7A2F9054623689B017FF595AEFFF796
:100EAC009BF9401B0228F6D9B8E601283FF4B7AEEF
:100EBC0058682B6A00F480329A427FF471AE6B6AE8
:100ECC0000F47010C01A18BF0120A8E600100240F0
:100EDC006000424230B5194B87B002AC03F11005EB
:100EEC00224618685968083303C2AB421446F7D13E
:100EFC0001238DF80430022311498DF805304B681D
:100F0C0003F00C02082A17D1C3F3834206A802444B
:100F1C00DB0312F8102C0CD54B680A48C3F3404382
:100F2C00504306AA134413F8143CB0FBF3F007B07B
:100F3C0030BD05485043FAE70248F8E7EC45000895
:100F4C000010024000127A0000093D002DE9F0412A
:100F5C000D46044610B90120BDE8F081454A1368DE
:100F6C0003F007038B4229D321688E0731D4CA07BB
:100F7C0044D4404A136803F007039D4267D32268A8
:100F8C003D4D12F0040F6ED1130706D56B68226924
:100F9C0023F4605343EAC2036B60FFF79BFF6B685B
:100FAC00364AC3F30313D35CD840354B1860354B2A
:100FBC001868FFF7CFF80020BDE8F081136823F024
:100FCC0007030B431360136803F007039942C2D164
:100FDC00CAE7294B11F0040F1EBF5A6842F4E062B5
:100FEC005A60080742BF5A6842F460525A605A6805
:100FFC00A06822F0F00202435A60B8E762681E4E05
:10100C00012A33681BD113F4003FA4D0736841F25A
:10101C00883823F0030313437360FFF7DDF80746AA
:10102C007368626803F00C03B3EB820FA1D0FFF777
:10103C00D3F8C01B4045F3D90320BDE8F081022A48
:10104C0002D113F0007FE0E713F0020FDDE7136825
:10105C0023F007032B431360136803F007039D422F
:10106C007FF479AF8BE76B68E16823F4E0630B43A3
:10107C006B6089E700200240001002401047000816
:10108C000C00002004000020044B054A5B68C3F3ED
:10109C000223D35C034A1068D8407047001002400A
:1010AC00204700080C000020044B054A5B68C3F382
:1010BC00C223D35C034A1068D8407047001002402A
:1010CC00204700080C00002003682DE9F341D907E4
:1010DC00054620D5354CE369DA0032D40127E369A3
:1010EC0043F08053E361E36903F080530193019B68
:1010FC002F4E3368DB0526D5236A13F4407336D1A3
:10110C00236A6A6823F44073134323621FB1E369B3
:10111C0023F08053E3612868830706D5234AA96826
:10112C00536823F440430B43536010F010001BD062
:10113C001E4AE9685368002023F480030B43536074
:10114C0012E00027D4E7336843F480733360FFF771
:10115C0043F880463368D805CED4FFF73DF8A0EBB2
:10116C0008006428F6D9032002B0BDE8F0816A6853
:10117C0002F440729342C3D001200E4A236A1060DD
:10118C00002023F4407110602162D907B8D5FFF715
:10119C0023F841F288380646236A9A07B0D4FFF741
:1011AC001BF8801B4045F7D9DDE700BF001002405B
:1011BC00007000404004424270B50446354B86B086
:1011CC0002AD03F110062A4618685968083303C2A9
:1011DC00B3421546F7D101238DF8043002239C420B
:1011EC008DF8053047D0102C17D0012C4FD140F280
:1011FC000231294A136A1940B1F5817F44D003F4B6
:10120C004073B3F5007F2DD149F64040536A13F07B
:10121C00020F08BF002006B070BD1F4B596818683C
:10122C0010F08070F7D0C1F3834206A8024412F884
:10123C00100CCA0341BF5A6806A9C2F340425218A7
:10124C0044BF12F8141C154A5B684CBFB2FBF1F298
:10125C00134A5B0202FB00F0DDD403234000B0FB19
:10126C00F3F0D8E7B3F5407F11D113684FF2244067
:10127C0013F4003FCDE7FFF717FF074B5B68C3F391
:10128C00813301335B00EAE74FF40040C3E70020F1
:10129C00C1E700BFFC4500080010024000127A00B4
:1012AC0000093D00036A70B523F001030362036A71
:1012BC00446882690D6822F073022A438D6823F01A
:1012CC0002032B430A4DA8420BD1CD6823F008032F
:1012DC002B438E694D6924F44074354323F0040389
:1012EC002C43446082614A684263036270BD00BF54
:1012FC00002C0140036A70B523F480730362036A07
:10130C004468C2690D6822F073022A438D6823F485
:10131C00007343EA05230B4DA8420DD1CD6823F48D
:10132C00006343EA05238E694D6924F44054354328
:10133C0023F4806344EA05144460C2614A68C263C2
:10134C00036270BD002C0140036A30B523F4805356
:10135C000362036A4468C2690D6822F4E64242EAF9
:10136C0005228D6823F4005343EA0533064DA84249
:10137C0002BF4D6924F4804444EA85144460C26180
:10138C004A680264036230BD002C014090F83D3085
:10139C00012B1CD102230F4A80F83D300368934285
:1013AC000AD0B3F1804F07D0A2F59432934203D008
:1013BC0002F58062934204D19A6802F00702062A71
:1013CC0003D01A6842F001021A6000207047012015
:1013DC00704700BF002C014041F211120368196ADA
:1013EC00114208D140F24442196A114202BF1A68F4
:1013FC0022F001021A60012380F83D300020704772
:10140C00704770477047704770477047036810B556
:10141C001A69044691070ED5DA6892070BD56FF05E
:10142C0002021A6101229B6902779B0777D0FFF7B2
:10143C00EAFF0023237723681A69500710D5DA686E
:10144C0051070DD56FF004021A6102229B692277B5
:10145C0013F4407F204668D0FFF7D5FF0023237795
:10146C0023681A6912070FD5DA6810070CD56FF0CC
:10147C0008021A610422DB692277990720465AD0A8
:10148C00FFF7C1FF0023237723681A69D20610D512
:10149C00DA68D0060DD56FF010021A610822DB69EC
:1014AC00227713F4407F20464BD0FFF7ACFF00238C
:1014BC00237723681A69D10708D5DA68D20705D5CE
:1014CC006FF0010220461A61FFF79CFF23681A692E
:1014DC00100608D5DA68110605D56FF08002204693
:1014EC001A6100F0D2FB23681A69520608D5DA6833
:1014FC00500605D56FF0400220461A61FFF785FFB4
:10150C0023681A69910622D5DA6892061FD56FF006
:10151C0020022046BDE810401A6100F0B5BB01F076
:10152C003DFB2046FFF770FF83E701F037FB2046B9
:10153C00FFF76AFF92E701F031FB2046FFF764FFEB
:10154C00A0E701F02BFB2046FFF75EFFAFE710BDD5
:10155C001A4A036890420AD0B0F1804F07D0A2F526
:10156C009432904203D002F58062904215D14A68C1
:10157C0023F070031343114A90420AD0B0F1804F0C
:10158C0007D0A2F59432904203D002F580629042CB
:10159C0003D1CA6823F4407313434A6923F08003D0
:1015AC00134303608B68C3620B688362034B9842DE
:1015BC0004BF0B690363012343617047002C014096
:1015CC0010B5044630B390F83D3003F0FF021BB960
:1015DC0080F83C2001F056FC0223206884F83D3052
:1015EC00211DFFF7B5FF0123002084F8463084F855
:1015FC003E3084F83F3084F8403084F8413084F831
:10160C00423084F8433084F8443084F8453084F810
:10161C003D3010BD012010BD10B5044630B390F81C
:10162C003D3003F0FF021BB980F83C20FFF7E8FEC9
:10163C000223206884F83D30211DFFF789FF012328
:10164C00002084F8463084F83E3084F83F3084F82B
:10165C00403084F8413084F8423084F8433084F8C8
:10166C00443084F8453084F83D3010BD012010BD65
:10167C0010B5044630B390F83D3003F0FF021BB9AF
:10168C0080F83C20FFF7BDFE0223206884F83D3033
:10169C00211DFFF75DFF0123002084F8463084F8FC
:1016AC003E3084F83F3084F8403084F8413084F880
:1016BC00423084F8433084F8443084F8453084F860
:1016CC003D3010BD012010BD036A70B523F010032E
:1016DC000362036A446882690D6822F4E64242EAB6
:1016EC0005228D6823F0200343EA05130B4DA84215
:1016FC000DD1CD6823F0800343EA05138E694D6943
:10170C0024F44064354323F0400344EA85044460E8
:10171C0082614A688263036270BD00BF002C014085
:10172C0090F83C3010B5012B044620D0012380F8F2
:10173C003C300C2A0BD8DFE802F0070A0A0A0E0A22
:10174C000A0A120A0A0A16000068FFF7ABFD00200D
:10175C0084F83C0010BD0068FFF7B6FFF7E700689F
:10176C00FFF7C8FDF3E70068FFF7EEFDEFE7022097
:10177C0010BD38B590F83C300446012B54D00123F1
:10178C0080F83C300C2A18D8DFE802F0071717173E
:10179C001B1717172C1717173D000068FFF782FD52
:1017AC00236809699A6942F008029A619A6922F0E1
:1017BC0004029A619A690A439A61002084F83C00F9
:1017CC0038BD0068FFF780FF236809699A6942F405
:1017DC0000629A619A6922F480629A619A6942EA7B
:1017EC000122E9E70068FFF785FD23680969DA69DA
:1017FC0042F00802DA61DA6922F00402DA61DA698D
:10180C000A43DA61D9E70068FFF79EFD236809698E
:10181C00DA6942F40062DA61DA6922F48062DA6130
:10182C00DA6942EA0122ECE7022038BD10B584687F
:10183C000A4324F47F4442EA03232343836010BD0C
:10184C0090F83C3070B5012B04464FF0020019D0D3
:10185C00012384F83D00206884F83C30836823F42D
:10186C007F4323F0770383600B68402B65D015D83A
:10187C00102B0CD007D853B10123002084F83D3035
:10188C0084F83C0070BD202B01D0302BF4D1826841
:10189C0043F0070322F0700213431AE0602B34D09C
:1018AC0019D8502BE8D14A68CE68016A056A21F034
:1018BC000A0125F00105056283690A4323F0F00350
:1018CC0043EA061383610262836823F0700343F0DA
:1018DC0057038360D0E7702B0CD0B3F5005FCBD1EE
:1018EC00CB684A688968FFF7A1FF2268936843F4C4
:1018FC00804308E0CB684A688968FFF797FF226845
:10190C00936843F077039360B6E74D68CE68016A3D
:10191C0021F0100101628269036A22F4704223F003
:10192C00A00343EA051342EA06328261036283682C
:10193C0023F0700343F06703CBE74A68CE68016A73
:10194C00056A21F00A0125F00105056283690A4345
:10195C0023F0F00343EA061383610262836823F0E9
:10196C00700343F04703B4E710B50124036A01F098
:10197C001F018C4023EA04030362036A8A401A4362
:10198C00026210BD10B5044629B990F83E30012B07
:10199C001DD0012010BD042907D190F83F30012B38
:1019AC00F7D1022380F83F3014E0082907D190F8D2
:1019BC004030012BEDD1022380F840300AE090F842
:1019CC004130012BE5D1022380F8413002E00223A3
:1019DC0080F83E3001222068FFF7C6FF23680E4ACC
:1019EC0093420AD15A6C42F400425A649A6802F04B
:1019FC000702062A0BD1002010BDB3F1804FF5D0A1
:101A0C00064A9342F2D002F580629342EED01A68F5
:101A1C0042F001021A60EEE7002C01400004004085
:101A2C0038B50446002200680D46FFF79DFF236879
:101A3C00184A93420DD141F21112196A114208D180
:101A4C0040F24442196A114202BF5A6C22F400421D
:101A5C005A6441F21112196A114208D140F24442FF
:101A6C00196A114202BF1A6822F001021A6001239E
:101A7C001DB984F83E30002038BD042D02D184F805
:101A8C003F30F8E7082D0CBF84F8403084F8413023
:101A9C00F1E700BF002C014010B5044629B990F8BD
:101AAC003E30012B3DD0012010BD04290BD190F804
:101ABC003F30012BF7D1022380F83F302268D368E6
:101ACC0043F004030CE008290CD190F84030012BB2
:101ADC00E9D10223026880F84030D36843F0080350
:101AEC00D3600BE090F84130012BDCD102230429A8
:101AFC0080F84130E2D00C291BD0A9B1012220681A
:101B0C00FFF732FF2368154A934217D15A6C42F4FF
:101B1C0000425A649A6802F00702062A18D1002083
:101B2C0010BD022380F83E302268D36843F00203D4
:101B3C00D6E70268D36843F01003D1E7B3F1804FC6
:101B4C00E8D0074A9342E5D002F580629342E1D097
:101B5C001A6842F001021A60E1E700BF002C014054
:101B6C0000040040FFF798BF38B504460D460C2919
:101B7C000DD8DFE801F0070C0C0C370C0C0C3C0CEE
:101B8C000C0C41000268D36823F00203D3600022DE
:101B9C0029462068FFF7E8FE2368204A93420DD1BE
:101BAC0041F21112196A114208D140F24442196AE9
:101BBC00114202BF5A6C22F400425A6441F21112D3
:101BCC00196A114208D140F24442196A114202BF0B
:101BDC001A6822F001021A60012395B984F83E308C
:101BEC00002038BD0268D36823F00403CEE70268F6
:101BFC00D36823F00803C9E70268D36823F0100305
:101C0C00C4E7042D02D184F83F30E9E7082D0CBF5E
:101C1C0084F8403084F84130E2E700BF002C0140EA
:101C2C00FFF7A2BF90F83C3030B5012B4FF0020308
:101C3C0025D0012280F83D3003680D685C6880F87F
:101C4C003C2024F070042C439A685C600D4CA34239
:101C5C000AD0B3F1804F07D0A4F59434A34203D03B
:101C6C0004F58064A34204D1496822F080020A433F
:101C7C009A60012380F83D30002380F83C301846F0
:101C8C0030BD00BF002C0140704770470368DA6814
:101C9C0022F49072DA605A6922F001025A61026BE6
:101CAC00012A02BFDA6822F01002DA60202380F8E1
:101CBC003E3000230363704738B504460368C1689F
:101CCC001A6922F440520A431A6182680069D96881
:101CDC000243606921F4B05121F00C0102430A4324
:101CEC00DA605A69A16922F440720A435A610E4AB9
:101CFC00934215D1FFF7D8F919235843636864222E
:101D0C009B00B0FBF3F0B0FBF2F102FB11031B01E3
:101D1C003233B3FBF2F3256803EB0113AB6038BD30
:101D2C00FFF7B2F9E8E700BF00380140F8B5044608
:101D3C000E4617461D4621680B6836EA030301D18F
:101D4C000020F8BD6B1CF7D095B923680320DA6826
:101D5C0022F4D072DA605A6922F001025A6120230F
:101D6C0084F83D3084F83E30002384F83C30F8BDD4
:101D7C00FEF732FAC01B8542DDD2E6E710B5044609
:101D8C0040B390F83D3003F0FF021BB980F83C20C3
:101D9C0001F094F82423226884F83D30D36820465F
:101DAC0023F40053D360FFF787FF236800201A69E0
:101DBC0022F490421A615A6922F02A025A61DA68B6
:101DCC0042F40052DA602023206484F83D3084F819
:101DDC003E3010BD012010BD2DE9F843984690F817
:101DEC003D300446202B0E4691464CD1002947D05D
:101DFC00002A45D090F83C30012B44D0012300251B
:101E0C0080F83C302123056480F83D30FEF7E4F97E
:101E1C00A3680746B3F5805FA4F82490A4F8269035
:101E2C0003D123690BB935461E46002384F83C3098
:101E3C00E38C9BB25BB943463A4640212046FFF700
:101E4C0075FF58B9202384F83D30BDE8F88343462C
:101E5C003A4680212046FFF769FF10B10320BDE808
:101E6C00F88322684EB935F8023BC3F3080353607C
:101E7C00E38C013B9BB2E384DAE716F8013BF6E70F
:101E8C000120BDE8F8830220BDE8F8837047704755
:101E9C0008B50023406AC385C384FFF7F8FF08BD6B
:101EAC00704707B58168836AB1F5805F026835D1E8
:101EBC000169002935D15268C2F3080223F8022BBC
:101ECC00C28D8362013A92B2C2851ABB0368D9688B
:101EDC0021F02001D960D96821F48071D960596949
:101EEC0021F001015961202180F83E10016B01297C
:101EFC0020D10263D96821F01001D9601968C90694
:101F0C0005D501921A6801925B680193019B818D42
:101F1C00FFF7C6FF002003B05DF804FB31B901697F
:101F2C0021B952681A70836A0133C9E7526802F00A
:101F3C007F02F7E700F0D0FBECE70000036837B551
:101F4C001A68044612F00F0FD9685D690BD195061B
:101F5C0063D58D0661D590F83E30222B01D1FFF769
:101F6C00A0FF03B030BD15F0010502D111F4907F34
:101F7C0053D0D00705D5CB0542BF236C43F00103EA
:101F8C002364500704D51DB1236C43F00203236472
:101F9C00930704D51DB1236C43F00403236410078D
:101FAC0006D58B0600D41DB1236C43F008032364C3
:101FBC00236C002BD5D0900608D58A0606D594F84C
:101FCC003E30222B02D12046FFF76BFF23682046C0
:101FDC005D69226C130702D415F0400519D0FFF788
:101FEC0055FE23685A6955060FD55A69A06B22F025
:101FFC0040025A6148B1544B4363FEF783FC0028FE
:10200C00AFD0A06B436B9847ABE72046FFF73FFF81
:10201C00A7E7FFF73CFF2564A3E7206B012857D106
:10202C00D00655D5CD0653D5002101911A680192E1
:10203C005A680192019A5A6912F040022AD0A06B98
:10204C000268526892B2002A8BD0A58D954288D92D
:10205C00E2858269202A15D0DA6822F48072DA606F
:10206C005A6922F001025A615A6922F040025A61FF
:10207C00202284F83E202163DA6822F01002DA6014
:10208C00FEF71EFCE38DA18DC91A89B22046FFF71D
:10209C0007FF66E7E18D88B2E18D89B200293FF434
:1020AC0060AFA18D091A89B200293FF45AAFD868E4
:1020BC0020F49070D860586920F0010058612020FD
:1020CC0084F83E002263DA6822F01002DA60DDE761
:1020DC00100628D50D0626D594F83D20212A7FF42C
:1020EC0040AFA268B2F5805F226A17D12169A9B905
:1020FC0032F8021BC1F3080159602262E28C013AEA
:10210C0092B2E284002A7FF42CAFDA6822F08002CB
:10211C00DA60DA6842F04002DA6022E7511C216290
:10212C0012785A60EAE750067FF51BAF4A067FF536
:10213C0018AFDA68204622F04002DA60202384F8D7
:10214C003D30FFF7A3FE0CE79D1E0008C28582857B
:10215C008162034622220020186483F83C0083F835
:10216C003E201B68DA6842F48072DA605A6942F0E9
:10217C0001025A61DA6842F02002DA60704770B4EA
:10218C0090F83E60202E10D161B15AB190F83C40CD
:10219C00012C0AD0012480F83C400024046370BC5C
:1021AC00FFF7D4BF012070BC70470220FBE7000092
:1021BC0070B500258AB02946102206A8039504950F
:1021CC00059501F0D9F91A4B06A99A69194842F4F8
:1021DC0000729A619A69184C02F400720192019A89
:1021EC009A69012642F004029A619B6903F0040388
:1021FC000293029B4023069303230793FEF7CAFB2B
:10220C000E4B204623604FF46023A560E3612673D8
:10221C00257565602661FEF7DFF9062303A92046C4
:10222C00039304960596FEF78FF80AB070BD00BFB5
:10223C000010024000080140180200200024014058
:10224C0010222DE9F04389B00DEB0200002101F0C2
:10225C0093F95F4B01259A6902274FF4005442F021
:10226C0010029A619A695B4E02F010020092009A79
:10227C009A6904A942F020029A619A69304602F0E8
:10228C0020020192019A9A694FF4804842F00402AC
:10229C009A619A694FF4807902F004020292029AD0
:1022AC009A6942F008029A619B69049403F008034E
:1022BC000393039B05950797FEF76CFB21460024BF
:1022CC002A463046FEF74EFC04A93046CDF8108065
:1022DC00059506940797FEF75DFB41464FF40048C1
:1022EC002A463046FEF73EFC04A93046CDF8108055
:1022FC00059506940797FEF74DFB414608F180487B
:10230C0008F508482A463046FEF72CFC04A940463E
:10231C00CDF81090059506940797FEF73BFB2A46DF
:10232C0049464046FEF71EFC332304A9404604935D
:10233C00059506940797FEF72DFBF02304A930466C
:10234C000493059506940797FEF724FB802304A9B4
:10235C004046049305940695FEF71CFB04A93046F1
:10236C00049505940695FEF715FB04A930460497D1
:10237C0005940695FEF70EFB4FF4805304A93046E6
:10238C00049305940695FEF705FB2246214628206A
:10239C00FEF73EFA2820FEF76FFA22462146062069
:1023AC00FEF736FA0620FEF767FA2246214607208A
:1023BC00FEF72EFA0720FEF75FFA22462146172079
:1023CC00FEF726FA1720FEF757FA09B0BDE8F0839E
:1023DC0000100240000C014010B50A4C00212046B0
:1023EC00FFF71EFB04212046FFF71AFB08212046AD
:1023FC00FFF716FB0C212046FFF712FB0022024BC5
:10240C001A7010BD440A0020FC01002007B5074BD0
:10241C0001901A78012A06D14FF6FF7301A90448DE
:10242C00FFF7DAFC019803B05DF804FB050200200D
:10243C00FC0900207047000010B50446A0B101282B
:10244C0016D100210B48FFF79DFA04210948FFF72C
:10245C0099FA08210748FFF795FA0C210548FFF770
:10246C0091FA054B1C7010BDBDE81040FFF7B4BFCE
:10247C0010BD00BF440A0020FC010020013808B543
:10248C00062800F2D780DFE800F0042E496E849F06
:10249C00BF00002201216848FEF764FB01220221E3
:1024AC006548FEF75FFB002210216448FEF75AFBDB
:1024BC00012220216148FEF755FB002220215E48B5
:1024CC00FEF750FB012210215B48FEF74BFB00226C
:1024DC0080215A48FEF746FB0122BDE80840402106
:1024EC005648FEF73FBB002201215348FEF73AFB4A
:1024FC00002202215048FEF735FB002210214F48E4
:10250C00FEF730FB012220214C48FEF72BFB00226A
:10251C0020214948FEF726FB0022D4E700220121A6
:10252C004548FEF71FFB002202214348FEF71AFB29
:10253C00012210214148FEF715FB002220213F48C3
:10254C00FEF710FB002220213B48FEF70BFB00227C
:10255C0010213948FEF706FB012280213748FEF78F
:10256C0001FB0022B9E7012233481146FEF7FAFAC3
:10257C00002202213048FEF7F5FA012210212F48E3
:10258C00FEF7F0FA002220212C48FEF7EBFA01228C
:10259C00D9E7012228481146FEF7E4FA002202216D
:1025AC002548FEF7DFFA002210212448FEF7DAFA5C
:1025BC00002220212148FEF7D5FA012220211E48B5
:1025CC00FEF7D0FA002219E0002201211A48FEF78A
:1025DC00C9FA012202211848FEF7C4FA0022102180
:1025EC001648FEF7BFFA002220211448FEF7BAFA6B
:1025FC00002220211048FEF7B5FA012210210E48C6
:10260C00FEF7B0FA0022A8E7002201210A48FEF7E3
:10261C00A9FA002202210848FEF7A4FA0022102190
:10262C000648FEF79FFA002220210448FEF79AFA8A
:10263C000022C3E708BD00BF00080140000C0140A8
:10264C0008B5FDF7ABFD00F00FFDFFF7F9FD00221B
:10265C004FF47A71642000F041FD4FF47A724FF41C
:10266C00FA714FF4E15000F0DDFDFFF7A1FD1348C6
:10267C00FEF78CFE00211148FFF774FA1048FDF7A5
:10268C0023FF0F48FEF742F84FF4164000F07CFE93
:10269C004FF4164000F0CAFE01220A490A48FFF71F
:1026AC006EFD012209490A48FFF769FD0948FEF74A
:1026BC006DFE0120FFF7E2FEFEE700BF5002002096
:1026CC0018020020DE020020FC090020F904002082
:1026DC0098020020440A0020F8B5B14A03689342DE
:1026EC0040F0B380AF4C012225462146AE48FFF79F
:1026FC0046FD4FF6FF7301222146AB48FFF76CFBFA
:10270C0015F8023914F8022C0A2B05EB020102F120
:10271C000100CB7004F8020C2E4676D10023A3489E
:10272C00CB70611CAB7004F8022C00F02DFFA0499B
:10273C00E81CFDF705FD58B99E4800F099FF4FF4D1
:10274C0000519D48FEF713FA0023F3703370F8BD67
:10275C009A49601CFDF7F4FC28B9994800F088FFF1
:10276C004FF48041EDE79749601CFDF7E9FC28B96F
:10277C00954800F07DFF4FF40041E2E79349601C5F
:10278C00FDF7DEFC30B9924800F072FF4FF4807117
:10279C009048D7E79049601CFDF7D2FC0546E8B994
:1027AC008E4C277867B98E4800F062FF8D48FEF793
:1027BC00EDFD39468B48FFF7D5F901232370C3E7AC
:1027CC00012FC1D1884800F053FF8648FEF704FE64
:1027DC0029468448FFF724FA2570B5E78349601C25
:1027EC00FDF7AEFC0028AFD1814B1A781C462AB9F4
:1027FC00012280481A7000F03BFFA5E7012AA3D103
:10280C007D4800F035FF0023D8E7082B40F0A68167
:10281C0000264FF6FF73012278496348AE70FFF72C
:10282C00DBFA4FF6FF73012275495F48FFF7D4FAC4
:10283C0014F8023C5A1E023BDBB2D2B22A441D44AD
:10284C00D67004F8023CEE70F8BD6E4A934240F02C
:10285C0085816D4C0122254621466C48FFF78FFC83
:10286C0015F8012914F8013C0A2A05EB030103F1C0
:10287C0001008A7004F8010C2E4640F041810022C0
:10288C00601C8A7062496A7004F8013CFDF758FCC0
:10289C00E0B90120FFF7D0FD0720FFF7EFFD5D4CFD
:1028AC002278012A0FD15C4B00221978312940F093
:1028BC00FA805A481A7000F030FE594B186000F03C
:1028CC001AFD002323700023B3703FE75549A81C61
:1028DC00FDF736FC18B9FFF77FFD0120DDE7524903
:1028EC00601CFDF72DFC50B90120FFF7C7FD4F4BC5
:1028FC001B78002BD3D10120FFF79EFDCFE74C496D
:10290C00601CFDF71DFC28B90720FFF7B7FDFFF78A
:10291C0063FDC4E74749601CFDF712FC08B90420AD
:10292C00E3E74549601CFDF70BFC08B90220DCE726
:10293C004249A81CFDF704FC08B90620D5E740491C
:10294C003648FDF7FDFB08B90320CEE73D49334877
:10295C00FDF7F6FB08B90520C7E73B492F48FDF703
:10296C00EFFB044658B901461E48FFF759F90720FA
:10297C00FFF784FDFFF730FD344B1C708FE73449B3
:10298C002648FDF7DDFB0146002863D11548FFF70B
:10299C00E9F80120FFF772FD01222C4B1A707EE73B
:1029AC0000380140DE020020FC0900200C46000823
:1029BC00184600081C460008000C01402746000879
:1029CC002B460008364600083A46000845460008E3
:1029DC004946000800080140544600080900002040
:1029EC005946000850020020724600088D46000827
:1029FC000502002092460008AB46000898470008E4
:102A0C00C646000800480040F90400209802002047
:102A1C00C84600080A000020F0040020FA04002038
:102A2C004C020020D6460008E5460008FC010020B8
:102A3C00E746000890470008E9460008EB46000806
:102A4C00ED460008EF460008F1460008080000209B
:102A5C000147000842494348FDF772FB28B94FF47F
:102A6C0000514148FEF783F819E740493D48FDF70E
:102A7C0067FB10B94FF48041F3E73D493948FDF746
:102A8C005FFB10B94FF40041EBE73A493548FDF7CD
:102A9C0057FB00287FF403AF00F180404FF48071A6
:102AAC0000F58430DEE7322908D12E481A7000F088
:102ABC0034FD314B186000F030FC02E7332908D1AB
:102ACC0028481A7000F029FD2C4B186000F037FCD8
:102ADC00F7E6342908D123481A7000F01EFD284B64
:102AEC00186000F03EFCECE635297FF4EAAE1D4898
:102AFC001A7000F012FD234B186000F0EBFBE0E6BF
:102B0C00082A1CD100264FF6FF7301221E491F48CC
:102B1C006E70FFF761F94FF6FF7301221C491B48D9
:102B2C00FFF75AF914F8013C5A1E023BDBB2D2B241
:102B3C002A441D44967004F8013CAE70F8BD3A2A44
:102B4C000CD100228A7004F8012C0122013BDBB26B
:102B5C001D44A9780F4B19700F4B1A70F8BD00BFAC
:102B6C0023460008FA040020000C014032460008FD
:102B7C004146000850460008F4040020E004002000
:102B8C00EC040020E404002098470008FC09002015
:102B9C00C6460008F00400200A0000202DE9F84386
:102BAC000268794B9A4240F0ED80047F012C40F092
:102BBC00E9807648FDF788FC4FF6FF717348FDF706
:102BCC0011FB7248FDF7BCFB714BDFF800821860FB
:102BDC000A23584340F6FF73B0FBF3F06D4B6E4F76
:102BEC00186000F077FB6948FDF776FD80216B4893
:102BFC00FDF7B2FF214688F800006948FDF7ACFFED
:102C0C00022138706648FDF7A7FF664E4FF48051DD
:102C1C0030706348FDF7A0FF634D98F800302870C2
:102C2C00002B73D1614B93F80090B9F1000F13D1C5
:102C3C00DFF89C814FF4005159481C70FDF797FF49
:102C4C0098F80010002958D15948FEF79BFE2046F1
:102C5C0088F80040FFF712FC3B78002B68D1554BED
:102C6C0093F80080B8F1000F12D10127524C4FF4A9
:102C7C0080414B481F70FDF77AFF2378002B4ED113
:102C8C0004214B48FEF77EFE38462770FFF7F6FB13
:102C9C003378002B5DD1494B1F7897B90126484CEE
:102CAC004FF400413E481E70FDF761FF2378002B66
:102CBC0047D108213E48FEF765FE30462670FFF7E7
:102CCC00DDFB2B78002B56D13E4B1E78002E59D1B4
:102CDC0001253D4C4FF4807130481D70FDF747FFC6
:102CEC002378002B3ED10C213148FEF74BFE25708A
:102CFC002846BDE8F843FFF7C1BB0129ACD14946D2
:102D0C002B48FEF78DFE88F80090A5E7012BA3D188
:102D1C00264B1A78002A9FD000221A709CE7012BB0
:102D2C00B6D104212248FEF77BFE84F80080AFE781
:102D3C00012BADD11F4B1A78002AA9D000221A7092
:102D4C00A6E7012BBDD108211948FEF769FE2770B3
:102D5C00B7E7012BB5D1194B1A78002AB1D0002254
:102D6C001A70AEE7012B0DD10C211148FEF758FE5D
:102D7C002670BDE8F883012B04D1124B1A780AB1E6
:102D8C0000221A70BDE8F8830008004018020020E9
:102D9C00E8040020E4040020400A00200008014060
:102DAC00000C014048020020410A002001020020D2
:102DBC00440A002002020020FE0100200302002031
:102DCC00FF01002004020020000200208C0A0020D9
:102DDC00FD010020124B07B59A69052042F0010253
:102DEC009A619A6902F001020092009ADA6942F043
:102DFC008052DA610022DB69114603F080530193A3
:102E0C00019BFDF705FD0520FDF736FD054A5368CE
:102E1C0023F0E06343F00073536003B05DF804FBF0
:102E2C00001002400000014010B5044686B010228C
:102E3C00002102A800F0A0FB2268104B9A421BD183
:102E4C0003F56C439A6902A942F400729A619A697B
:102E5C000B4802F400720092009A9A6942F0040244
:102E6C009A619B6903F004030193019B4023029335
:102E7C0003230393FDF78EFD06B010BD0024014023
:102E8C0000080140036807B5B3F1804F12D103F578
:102E9C000433DA691C2042F00102DA610022DB699A
:102EAC00114603F001030193019BFDF7B1FC1C20BB
:102EBC00FDF7E2FC03B05DF804FB0000102210B536
:102ECC00044688B00DEB0200002100F055FB23688E
:102EDC00274A934229D1274B04A99A69264842F4E0
:102EEC0080429A619A6902F480420092009A9A692F
:102EFC0042F004029A619B6903F004030193019B65
:102F0C004FF4007304930223059303230793FDF7F7
:102F1C0041FD4FF480630493002304A916480593E4
:102F2C000693FDF737FD08B010BD144A9342FAD151
:102F3C00104B04A9DA69104842F40032DA61DA69FC
:102F4C0002F400320292029A9A6942F004029A61E7
:102F5C009B6903F004030393039B04230493022350
:102F6C00059303230793FDF715FD0823D3E700BF53
:102F7C0000380140001002400008014000440040AD
:102F8C007047FEE7FEE7FEE7FEE7704770477047C5
:102F9C00FDF716B9704700000148FEF737BA00BFBD
:102FAC00440A00200148FEF731BA00BF500200204D
:102FBC004FF48050FDF7E4BD8020FDF7E1BD01200A
:102FCC00FDF7DEBD0220FDF7DBBD00000148FEF77A
:102FDC00B5BF00BFFC0900200148FEF7AFBF00BF22
:102FEC009802002070B50E4615460C46A31B9D4258
:102FFC0001DC284670BDAFF3008004F8010BF5E747
:10300C0070B50E4615460C46A31B9D4201DC2846A6
:10301C0070BD14F8010BFFF7F9F9F5E708B50A4B89
:10302C000246196809B909491960694618680244C9
:10303C008A4206D900F076FA0C2303604FF0FF3079
:10304C0008BD1A6008BD00BF08020020940A0020C9
:10305C004FF0FF3070474FF4005300204B60704727
:10306C000120704700207047282210B594B0002131
:10307C000DEB020000F080FA142200210DEB02008F
:10308C0000F07AFA0021102201A800F075FA4FF432
:10309C008033012202240B9312934FF4C0130AA81D
:1030AC000A920E9213931194FDF776FD0F234FF4B1
:1030BC00806205930023214605A806940793089285
:1030CC000993FDF743FF00B101944FF4004301A8AD
:1030DC000393FDF7F9FF14B010BD70472DE9F04FC5
:1030EC0010244FF01C0B002595B0814688461746DE
:1030FC000021224605A800F03FFA5A4600210DA8EF
:10310C0000F03AFA22460021414C09A800F034FAAA
:10311C0003950495A369022643F00403A361A369F4
:10312C004FF0080A03F004030093009BA36905A960
:10313C0043F00803A361A369364803F00803019325
:10314C00019B48F20C03069605930896FDF722FCAA
:10315C0005A93148CDF814A006960896FDF71AFC7F
:10316C002E4A29465368584623F4407343F0E063D3
:10317C0043F480735360E3692A4643F00103E3612F
:10318C00E369274C03F001030293029BFDF740FB1C
:10319C005846FDF771FB4FF08043236009F1FF3374
:1031AC00636008F1FF33E36080232046A361A560D0
:1031BC002561FEF705FA4FF4805309A920460993BF
:1031CC00FEF73EFB2046FEF753FA03A92046039573
:1031DC000495FEF727FD70232A460DA9013F2046D2
:1031EC000D930E970F961195FEF7C3FA0DA90422B5
:1031FC002046FEF7BEFA52460DA92046FEF7B9FA54
:10320C000C220DA92046FEF7B4FA15B0BDE8F08FDC
:10321C000010024000080140000C01400000014079
:10322C00440A00202DE9F0418EB080460E46174628
:10323C000021102203A8002400F09EF91C22214634
:10324C000DEB02000194029400F096F91E4B2146FE
:10325C00DA691E2042F00402DA61DB69224603F0CF
:10326C0004030093009BFDF7D3FA1E20FDF704FB2B
:10327C00164D174B013F2B6008F1FF336B60802319
:10328C002846AB61AC60EF602C61FEF799F94FF406
:10329C00805303A928460393FEF7D2FA2846FEF77B
:1032AC00BBF901A9284601940294013EFEF7BAFC31
:1032BC00224607A928460794089609940B94FEF712
:1032CC002FFA0EB0BDE8F081001002405002002031
:1032DC00000800404FF08043DA6A38B192B202FB2A
:1032EC0000000A2290FBF2F0013880B25863986318
:1032FC00D863186470474FF080430A28DA6A0AD8FA
:10330C0038B10A2302FB0000B0FBF3F04FF080430E
:10331C000138586370470A20F3E74FF080430A28BE
:10332C00DA6A0AD838B10A2302FB0000B0FBF3F0CA
:10333C004FF080430138986370470A20F3E74FF051
:10334C0080430A28DA6A0AD838B10A2302FB000043
:10335C00B0FBF3F04FF080430138D86370470A207C
:10336C00F3E74FF080430A28DA6A0AD838B10A2307
:10337C0002FB0000B0FBF3F04FF0804301381864FF
:10338C0070470A20F3E7000070B586B0054610229E
:10339C00002102A800F0F0F8204B214E9A6902A9F6
:1033AC0042F480429A619A69304602F4804200925B
:1033BC00009A9A69002442F004029A619B6903F016
:1033CC0004030193019B4FF40073029302230393B4
:1033DC0003230593FDF7DEFA4FF480630293012378
:1033EC0002A9304604930394FDF7D4FA22462146F1
:1033FC002520FDF70DFA2520FDF73EFA09480A4B6A
:10340C00846080E828000C23C460046143618461FB
:10341C00C461FEF7B3FC06B070BD00BF00100240E3
:10342C0000080140FC0900200038014070B586B04E
:10343C0005461022002102A800F09EF8204B214ED8
:10344C00DA6902A942F48022DA61DA69304602F4C0
:10345C0080220092009A9A69002442F008029A6134
:10346C009B6903F008030193019B4FF48063029363
:10347C000223039303230593FDF78CFA4FF40063A7
:10348C000293012302A9304604930394FDF782FAB8
:10349C00224621462720FDF7BBF92720FDF7ECF942
:1034AC0009480A4B846080E828000C23C46004613E
:1034BC0043618461C461FEF761FC06B070BD00BF5E
:1034CC0000100240000C014098020020004800400F
:1034DC000C480D490D4A002302E0D458C450043363
:1034EC00C4188C42F9D30A4A0A4C002301E0136039
:1034FC000432A242FBD3FFF7F0FD00F019F8FFF7FE
:10350C009FF8704700000020E0010020D048000820
:10351C00E0010020940A0020FEE70A22002100F0BE
:10352C002FB90000014B1868704700BF1000002035
:10353C0070B500250C4E0D4CA41BA410A54209D14E
:10354C0001F042F800250A4E0A4CA41BA410A54217
:10355C0005D170BD56F8253098470135EEE756F881
:10356C00253098470135F2E7C8480008C8480008DC
:10357C00C8480008CC48000803460244934200D1D6
:10358C00704703F8011BF9E70FB40A4B13B51C681D
:10359C0024B1A36913B9204600F0BAFA05AB049A1A
:1035AC00A1682046019300F089FC02B0BDE81040F0
:1035BC0004B070471000002070B50E46054618B1D7
:1035CC0083690BB900F0A4FAAB69AC6813B928464F
:1035DC0000F09EFA234B9C4217D16C68A3891B0701
:1035EC001DD52369DBB1013EA36816F8011F013B11
:1035FC00A360E9B9002B2EDA22460A21284600F0F6
:10360C00D5F8013011D00A2070BD174B9C4201D166
:10361C00AC68E3E7154B9C4208BFEC68DEE721463B
:10362C00284600F015F90028DDD04FF0FF3070BDB2
:10363C00002B04DAA269934206DB0A2904D0236822
:10364C005A1C22601970CFE72246284600F0AEF8CB
:10365C000130C9D1E9E70A2023685A1C226018708E
:10366C0070BD00BF4C4700086C4700082C47000891
:10367C00024B01461868FFF79FBF00BF10000020E7
:10368C002DE9F84F8046894692461F468B465D468B
:10369C000A9815F8014B00F0C5FA2044467816F04C
:1036AC0008060BD12D2C0BD101262C780BF1020521
:1036BC0067B1102F14D1302C0AD011E0AB46E6E7DD
:1036CC002B2C04BF2C780BF10205F1E7302C27D101
:1036DC002B7803F0DF03582B4BD110276C78023575
:1036EC00002E0CBF6FF000414FF000410022B1FBE7
:1036FC00F7FE104607FB1E1CA4F13003092B11D852
:10370C001C46A7421DDD531C07D0864516D301D19C
:10371C00A44513DB012200FB074015F8014BEBE736
:10372C000A27DDE7A4F14103192B01D8373CE8E760
:10373C00A4F16103192B04D8573CE2E74FF0FF3298
:10374C00EBE7531C08D122230846C8F80030BAF125
:10375C00000F07D1BDE8F88F06B14042BAF1000F57
:10376C000CD022B1013DCAF80050BDE8F88F4D468F
:10377C00F9E73024002FB3D10827B1E7BDE8F88F63
:10378C00084B37B51C68084D236A002B08BF2B4625
:10379C00009313460A4601462046FFF771FF03B01B
:1037AC0030BD00BF1000002074000020F8B50E469C
:1037BC001446054618B183690BB900F0A9F9214BE1
:1037CC009C422AD16C68A369A360A3891A072ED5E1
:1037DC00236963B323692068F6B2C01A636937465C
:1037EC00984204DB2146284600F028F928BBA36840
:1037FC000130013BA36023685A1C22601E70636970
:10380C00984204D0A389DB0719D50A2E17D121467B
:10381C00284600F013F990B10FE00B4B9C4201D1FC
:10382C00AC68D0E7094B9C4208BFEC68CBE721465B
:10383C00284600F00DF80028CCD04FF0FF37384662
:10384C00F8BD00BF4C4700086C4700082C47000827
:10385C00324B70B51D6806460C4625B1AB6913B9E1
:10386C00284600F055F92E4B9C420FD16C68B4F9E8
:10387C000C309AB215072CD4D00611D40922326020
:10388C0043F04003A3814FF0FF3070BD254B9C42A9
:10389C0001D1AC68EBE7244B9C4208BFEC68E6E72F
:1038AC00510712D5616B41B104F14403994202D026
:1038BC00304600F031FA00236363A38923F024031C
:1038CC00A3810023636023692360A38943F0080369
:1038DC00A38123694BB9A38903F42073B3F5007F4B
:1038EC0003D02146304600F0C5F9A28912F001033D
:1038FC000CD00023A36063695B42A361236953B9B5
:10390C00B4F90C3013F08000BAD170BD920758BFD7
:10391C006369A360F2E70020F7E700BF1000002006
:10392C004C4700086C4700082C4700088A892DE991
:10393C00F041054610070C465AD44B68002B05DCA9
:10394C000B6C002B02DC0020BDE8F081E66A002E37
:10395C00F9D0002312F480522F682B6033D0606DA5
:10396C00A3895A0705D56368C01A636B0BB1236C26
:10397C00C01A00230246E66A216A2846B047431C57
:10398C00A38906D129681D294BD82B4ACA40D607D2
:10399C0047D5002262602269D904226004D5421CFA
:1039AC0001D12B6803B96065616B2F600029CAD007
:1039BC0004F14403994202D0284600F0ADF90020EE
:1039CC006063BDE8F081216A01232846B047411CA1
:1039DC00C6D12B68002BC3D01D2B01D0162B01D1C7
:1039EC002F60B0E7A38943F04003A381BDE8F081C9
:1039FC000F69002FA7D0930718BF00230E6808BFCC
:103A0C004B69A6EB07080F608B60B8F1000F9ADDCD
:103A1C0043463A46216A2846A66AB047002807DC86
:103A2C00A38943F04003A3814FF0FF30BDE8F08140
:103A3C000744A8EB0008E8E70100402038B50B6903
:103A4C0005460C46DBB118B183690BB900F060F880
:103A5C000C4B9C4209D16C68B4F90C307BB12146FB
:103A6C002846BDE83840FFF761BF074B9C4201D1A7
:103A7C00AC68F1E7054B9C4208BFEC68ECE7002012
:103A8C0038BD00BF4C4700086C4700082C470008A5
:103A9C00014900F0A9B800BF493A0008002310B54D
:103AAC00044603604360836081814366C281036185
:103ABC0043618361194608225C30FFF75DFD054BBD
:103ACC0024626362044BA362044BE362044B2363E2
:103ADC0010BD00BF45440008674400089F4400081F
:103AEC00C344000870B568254A1E55430E4605F1BF
:103AFC00740100F05DF9044640B1002180E84200F9
:103B0C000C30A06005F16802FFF736FD204670BD51
:103B1C00836910B5044633BB8364C3640365124BDD
:103B2C00124A1B688262984204BF0123836100F031
:103B3C001FF86060204600F01BF8A060204600F0E3
:103B4C0017F80022E06004216068FFF7A7FF01224C
:103B5C000921A068FFF7A2FF02221221E068FFF7FB
:103B6C009DFF0123A36110BD284700089D3A000862
:103B7C00F8B51C4B07461E68B36913B93046FFF7FE
:103B8C00C7FF4836B4687368013B03D5336833B15B
:103B9C003668F7E7B4F90C506DB16834F4E70421DA
:103BAC003846FFF79FFF30600028F1D10C23044604
:103BBC003B602046F8BD4FF6FF73E3810123656639
:103BCC00A3812560A560656025616561A5610822FA
:103BDC00294604F15C00FFF7CFFC6563A563A5647F
:103BEC00E564E6E7284700082DE9F8438046894656
:103BFC00002600F1480414B93046BDE8F883A568E6
:103C0C006768013F01D52468F5E7AB89012B07D91B
:103C1C00B5F90E30013303D029464046C847064358
:103C2C006835EEE7D0F8EC00704770B50E46B1F988
:103C3C000E1090B0002914461D4607DA00232B60A5
:103C4C00B3891A0610D44FF480630EE001AA00F079
:103C5C0065FC0028F2DB029A02F47042A2F50053D4
:103C6C005A425A412A60EEE740230020236010B0EC
:103C7C0070BD00008B8973B59D0706460C4607D5B1
:103C8C0004F14703236023610123636102B070BD1B
:103C9C0001AB6A46FFF7C9FF00990546304600F0B4
:103CAC0087F848B9B4F90C309A05EFD423F0030324
:103CBC0043F00203A381E3E70D4BB362A3892060B9
:103CCC0043F08003A381009B20616361019B5BB186
:103CDC00B4F90E10304600F033FC28B1A38923F060
:103CEC00030343F00103A381A3891D43A581CDE701
:103CFC009D3A000882B001B901A942B14BB11378C9
:103D0C000B601278101C18BF012002B070471046CF
:103D1C00FBE76FF00100F8E738B50546002943D002
:103D2C0051F8043C0C1F002BB8BFE41800F038FC11
:103D3C001E4A1368104633B9636014602846BDE808
:103D4C00384000F02EBCA3420BD921686218934274
:103D5C0001BF1A685B685218226063600460EDE76B
:103D6C0013465A680AB1A242FAD919685818A042E7
:103D7C000BD120680144581882421960DED11068BA
:103D8C005268014419605A60D8E702D90C232B60A1
:103D9C00D4E7206821188A4201BF116852680918BB
:103DAC00216062605C60C9E738BD00BF0C02002076
:103DBC0070B5CD1C25F0030508350C2D38BF0C252E
:103DCC00002D064601DBA94203D90C2333600020E9
:103DDC0070BD00F0E5FB234A1468214691B9224CD2
:103DEC0023681BB9304600F017FB2060294630468B
:103DFC0000F012FB431C26D10C233046336000F03C
:103E0C00D0FBE4E70B685B1B1AD40B2B0FD90B60B0
:103E1C00CC18CD50304600F0C4FB04F10B00231D30
:103E2C0020F00700C31A1BD05A42E25070BD8C42DE
:103E3C000BBF63684B681360636018BF0C46E9E7FF
:103E4C000C464968CAE7C41C24F00304A04205D000
:103E5C00211A304600F0E0FA0130CDD02560D9E7C8
:103E6C0070BD00BF0C02002010020020936810B43B
:103E7C00013B002B936008DA9469A34202DBCBB2BE
:103E8C000A2B02D110BCFFF791BC1368581C1060B0
:103E9C001970C8B210BC7047F8B506460F461446E8
:103EAC00D518AC4201D1002007E03A4614F8011BAA
:103EBC003046FFF7DBFF431CF3D1F8BD2DE9F04F83
:103ECC009DB00C4617460393064618B183690BB98F
:103EDC00FFF71EFE7C4B9C4257D17468A3891807D0
:103EEC005DD52369002B5AD00023099320238DF82C
:103EFC00293030234FF0010B8DF82A30B846454657
:103F0C0015F8013B002B55D1B8EB070A0BD05346E3
:103F1C003A4621463046FFF7BFFF013000F0C4801F
:103F2C00099B5344099398F80030002B00F0BC8097
:103F3C0000234FF0FF3204930793059206938DF8FC
:103F4C0053301A9305222978604800F01BFB05F1C9
:103F5C000108049B002831D1D90644BF20228DF8DA
:103F6C0053201A0744BF2B228DF853202A782A2A73
:103F7C002CD000210A20079AA84698F80030013569
:103F8C00303B092B6DD971B326E0514B9C4201D1CA
:103F9C00B468A3E74F4B9C4208BFF4689EE72146E8
:103FAC003046FFF755FC00289ED04FF0FF301DB077
:103FBC00BDE8F08F252BA7D0A846A0E7434A45467D
:103FCC00801A0BFA00F018430490BBE7039A111DFA
:103FDC0012680391002A01DB079204E0524243F07D
:103FEC0002030792049398F800302E2B10D198F806
:103FFC00013008F101012A2B37D1039B08F102088B
:10400C001A1D1B680392002BB8BF4FF0FF330593AA
:10401C00314D032298F80010284600F0B3FA40B155
:10402C004023401B03FA00F0049B08F101080343F2
:10403C00049398F800100622284808F101078DF81F
:10404C00281000F09FFA002834D0254B03BB039BAB
:10405C00073323F0070308330393099B4B4409935D
:10406C004CE700FB0232012186E700230A251846A3
:10407C000593884698F800200131303A092A03D973
:10408C00002BC5D00590C3E705FB00200123F0E70A
:10409C0003AB00932246134B04A93046AFF30080C8
:1040AC00B0F1FF3F8146D8D1A3895B063FF57DAFC8
:1040BC0009987CE703AB009322460A4B04A93046CF
:1040CC0000F08AF8ECE700BF4C4700089447000862
:1040DC006C4700082C4700089A4700089E470008C8
:1040EC0000000000A53E00082DE9F04791461F4650
:1040FC008A680B6906469342B8BF1346C9F800306C
:10410C0091F843200C46DDF8208012B10133C9F838
:10411C0000302368990642BFD9F800300233C9F841
:10412C000030256815F0060507D104F1190AE3687B
:10413C00D9F800209B1A9D422ADB94F84330226860
:10414C00003318BF012392062FD404F143023946E1
:10415C003046C047013022D02368E56803F00603DF
:10416C00042B18BF0025D9F800204FF0000908BF18
:10417C00AD1AA368226908BF25EAE5759342C4BF4E
:10418C009B1AED181A344D451BD10020BDE8F08761
:10419C000123524639463046C047013003D14FF017
:1041AC00FF30BDE8F0870135C1E73020E11881F818
:1041BC0043005A1C94F845102244023382F84310F1
:1041CC00C3E70123224639463046C0470130E6D0CA
:1041DC0009F10109D7E700002DE9F04317460A7EE3
:1041EC0085B06E2A984606460C460C9B01F1430E90
:1041FC0000F0BC801AD8632A2ED00AD8002A00F00E
:10420C00C880582A00F08A8004F1420584F84220C4
:10421C002AE0642A01D0692AF6D121681A6811F0C3
:10422C00800F23D0111D1960136827E0732A00F04A
:10423C00B48008D86F2A2AD0702AE5D10A6842F0D7
:10424C0020020A6003E0752A21D0782ADCD178227A
:10425C006F4984F8452064E01A6801F14205111D8C
:10426C001960136884F842300123A3E011F0400F69
:10427C0002F104011960D7D0B2F90030002B03DA37
:10428C002D225B4284F8432062490A2217E0206801
:10429C00196810F0800F03D0081D18600B6806E039
:1042AC0010F0400F01F104001860F7D00B886F2A52
:1042BC0014BF0A2208225749002084F8430065687D
:1042CC00002DA560C0F29C80206820F004002060C6
:1042DC00002B3FD1002D40F095807546082A0BD15C
:1042EC002368DA0708D5236962689A42DEBF302357
:1042FC0005F8013C05F1FF35AEEB05032361CDF864
:10430C0000803B4603AA21463046FFF7EDFE013004
:10431C0055D14FF0FF3005B0BDE8F08381F8452052
:10432C003C492268186812F0800F00F104051D60EA
:10433C0001D0036802E05506FBD50388D00744BFC3
:10434C0042F0200222601BB9226822F02002226077
:10435C001022B1E77546B3FBF2F002FB1033CB5CD5
:10436C0005F8013D03460028F5D1B7E708681A683F
:10437C0010F0800F496904D0101D18601368196083
:10438C0007E010F0400F02F1040018601368F6D03B
:10439C001980002375462361B1E71A68111D196055
:1043AC00156800216268284600F0ECF808B1401B43
:1043BC00606063682361002384F843309FE72369BE
:1043CC002A4639463046C0470130A2D023689B07A5
:1043DC0007D5002504F11909E368039A9B1A9D423D
:1043EC0005DBE068039B9842B8BF184693E70123AE
:1043FC004A4639463046C04701308AD00135EBE792
:10440C00002BA7D10B7804F1420584F8423065E704
:10441C00B6470008A547000838B50023054C0546EB
:10442C0008462360FEF7FAFD431C02D1236803B152
:10443C002B6038BD900A002010B50C46B1F90E1057
:10444C0000F0B0F80028ABBF636DA3891B1823F4F0
:10445C008053ACBF6365A38110BD2DE9F0411F46AD
:10446C008B890546DB050C46164605D50223002232
:10447C00B1F90E1000F074F8A389324623F480537E
:10448C00A381B4F90E103B462846BDE8F04100F07C
:10449C0023B810B50C46B1F90E1000F061F8431CAE
:1044AC00A38915BF606523F4805343F48053A38123
:1044BC0018BFA38110BDB1F90E1000F01FB849B19F
:1044CC00FF2A8BBF8A230A700360012088BF4FF03C
:1044DC00FF3070470846704738B505460846114608
:1044EC000022054C22601A46FEF78AFD431C02D1BD
:1044FC00236803B12B6038BD900A002038B5002327
:10450C00054C054608462360FEF7A2FD431C02D16C
:10451C00236803B12B6038BD900A002038B5002306
:10452C00064C0546084611462360FEF794FD431CD5
:10453C0002D1236803B12B6038BD00BF900A002064
:10454C0038B50023054C054608462360FEF788FD68
:10455C00431C02D1236803B12B6038BD900A0020A4
:10456C0038B50546084611460022054C22601A460D
:10457C00FEF778FD431C02D1236803B12B6038BDD4
:10458C00900A002010B5C9B202449042034601D1F2
:10459C00002010BD1C7801308C42F6D1184610BD9D
:1045AC007047704738B50546084611460022054C41
:1045BC0022601A46FEF716FD431C02D1236803B194
:1045CC002B6038BD900A0020F8B500BFF8BC08BCC1
:1045DC009E467047F8B500BFF8BC08BC9E467047B5
:1045EC0002030405060708090A0B0C0D0E0F101028
:1045FC0002030405060708090A0B0C0D0E0F101018
:10460C00536C617665203A2025730A006C64310086
:10461C00546F67676C65204C4431006C64320054F5
:10462C006F67676C65204C4432006C643300546FC8
:10463C0067676C65204C4433006C643400546F67BE
:10464C00676C65204C44340074696D34002D2D2D3D
:10465C002054494D34203A20414354495641544545
:10466C0044202D2D2D002D2D2D2054494D34203A34
:10467C0020494E414354495641544544202D2D2D3B
:10468C000055415254002D2D2D2055415254203AA5
:10469C0020414354495641544544202D2D2D002D85
:1046AC002D2D2055415254203A20494E4143544916
:1046BC005641544544202D2D2D0008004B65792082
:1046CC004D6F6465203D204F4E004B6579204D6F3A
:1046DC006465203D204F464600570053005100456D
:1046EC00005A0043004469616C204D6F6465203DA5
:1046FC00204F4646004469616C204D6F6465203D37
:10470C00204F4E00000000000000000001020304D6
:10471C000607080900000000010203041400002031
:10472C00000000000000000000000000000000007D
:10473C00000000000000000000000000000000006D
:10474C00000000000000000000000000000000005D
:10475C00000000000000000000000000000000004D
:10476C00000000000000000000000000000000003D
:10477C00000000000000000000000000000000002D
:10478C00504F534958002E00232D302B2000686CBD
:10479C004C00656667454647003031323334353658
:1047AC003738394142434445460030313233343591
:1047BC00363738396162636465660000202020203A
:1047CC0020202020202828282828202020202020B5
:1047DC002020202020202020202020208810101095
:1047EC0010101010101010101010101004040404ED
:1047FC000404040404041010101010101041414162
:10480C0041414101010101010101010101010101CC
:10481C00010101010101011010101010104242425F
:10482C00424242020202020202020202020202029C
:10483C0002020202020202101010102000000000FE
:10484C00000000000000000000000000000000005C
:10485C00000000000000000000000000000000004C
:10486C00000000000000000000000000000000003C
:10487C00000000000000000000000000000000002C
:10488C00000000000000000000000000000000001C
:10489C00000000000000000000000000000000000C
:1048AC0000000000000000000000000000000000FC
:0C48BC00000000000000000000000000F0
:0448C80031010008B2
:0448CC000D010008D2
:1048D0000100000010000000010101000024F400AC
:1048E00014000020000000004C4700086C4700083E
:1048F0002C4700080000000000000000000000003D
:1049000000000000000000000000000000000000A7
:104910000000000000000000000000000000000097
:104920000000000000000000000000000000000087
:104930000000000000000000000000000000000077
:104940000000000043000000000000000000000024
:104950000000000000000000000000000000000057
:104960000000000043000000000000000000000004
:104970000000000000000000000000000000000037
:1049800000000000430000000000000000000000E4
:104990000000000000000000000000000000000017
:1049A00000000000430000000000000000000000C4
:1049B00000000000000000000000000000000000F7
:1049C00000000000430000000000000000000000A4
:1049D00000000000000000000000000000000000D7
:1049E0000000000043000000000000000000000084
:1049F00000000000000000000000000000000000B7
:104A00000000000043000000000000000000000063
:104A10000000000000000000000000000000000096
:104A200000000000CB440008013D00080000000029
:104A3000C747000892470008C7460008C746000855
:104A4000C7460008C7460008C7460008C746000812
:104A5000C7460008C7460008C7460008FFFFFFFF1B
:104A6000FFFFFFFFFFFFFFFFFFFF000001004153BB
:104A70004349490000000000000000000000000061
:104A80000000000000000000000000000000415392
:104A90004349490000000000000000000000000041
:104AA0000000000000000000000000000000000006
:04000005080034DDDE
:00000001FF
